:020000040800F2
:1000000000C00020D15600086D13000871130008CD
:1000100075130008791300087D1300080000000024
:10002000000000000000000000000000813D00080A
:100030008113000800000000213E0008653E000812
:1000400019570008195700081957000819570008D0
:1000500019570008195700081957000819570008C0
:1000600019570008195700081957000819570008B0
:100070008513000895130008195700081957000840
:100080001957000819570008195700081957000890
:100090001957000819570008195700081957000880
:1000A00019570008A5130008195700081957000828
:1000B0001957000819570008195700081957000860
:1000C0001957000819570008195700081957000850
:1000D000195700081957000819570008B5130008E8
:1000E0001957000819570008195700081957000830
:1000F0001957000819570008195700081957000820
:10010000195700081957000819570008195700080F
:1001100019570008195700081957000819570008FF
:1001200019570008195700081957000819570008EF
:1001300000000000000000000000000000000000BF
:1001400000000000000000000000000000000000AF
:10015000000000000000000000000000000000009F
:10016000000000000000000000000000000000008F
:10017000000000000000000000000000000000007F
:10018000000000000000000000000000000000006F
:10019000000000000000000000000000000000005F
:1001A000000000000000000000000000000000004F
:1001B000000000000000000000000000000000003F
:1001C000000000000000000000000000000000002F
:1001D000000000000000000000000000000000001F
:0401E0005FF8E0F1F3
:1001F00010B5054C237833B9044B13B10448AFF361
:1002000000800123237010BD68040020000000005E
:10021000F4580008084B10B51BB108490848AFF363
:1002200000800848036803B910BD074B002BFBD0C2
:10023000BDE81040184700BF000000006C0400201B
:10024000F4580008680400200000000080F000401E
:1002500002E000BF81F0004142001FBF5FEA41039E
:1002600092EA030F7FEA226C7FEA236C6AD04FEA9E
:100270001262D2EB1363C1BFD218414048404140E3
:10028000B8BF5B42192B88BF704710F0004F40F495
:10029000000020F07F4018BF404211F0004F41F4B1
:1002A000000121F07F4118BF494292EA030F3FD07D
:1002B000A2F1010241FA03FC10EB0C00C3F1200390
:1002C00001FA03F100F0004302D5494260EB40001F
:1002D000B0F5000F13D3B0F1807F06D340084FEA8A
:1002E000310102F10102FE2A51D2B1F1004F40EB7F
:1002F000C25008BF20F0010040EA030070474900E7
:1003000040EB000010F4000FA2F10102EDD1B0FAB1
:1003100080FCACF1080CB2EB0C0200FA0CF0AABFA6
:1003200000EBC25052421843BCBFD0401843704744
:1003300092F0000F81F4000106BF80F4000001324A
:10034000013BB5E74FEA41037FEA226C18BF7FEA21
:10035000236C21D092EA030F04D092F0000F08BF63
:100360000846704790EA010F1CBF0020704712F04A
:100370007F4F04D1400028BF40F00040704712F189
:1003800000723CBF00F50000704700F0004343F0EE
:10039000FE4040F4000070477FEA226216BF084624
:1003A0007FEA23630146420206BF5FEA412390EAE7
:1003B000010F40F4800070474FF0000304E000BFDD
:1003C00010F0004348BF40425FEA000C08BF70478E
:1003D00043F0964301464FF000001CE050EA010252
:1003E00008BF70474FF000030AE000BF50EA010267
:1003F00008BF704711F0004302D5404261EB410154
:100400005FEA010C02BF84460146002043F0B64378
:1004100008BFA3F18053A3F50003BCFA8CF2083A9D
:10042000A3EBC25310DB01FA02FC634400FA02FCA6
:10043000C2F12002BCF1004F20FA02F243EB0200AD
:1004400008BF20F00100704702F1200201FA02FC0F
:10045000C2F1200250EA4C0021FA02F243EB020002
:1004600008BF20EADC7070474FF0FF0C1CEAD05246
:100470001EBF1CEAD15392EA0C0F93EA0C0F6FD007
:100480001A4480EA010C400218BF5FEA41211ED0E5
:100490004FF0006343EA501043EA5111A0FB0131D1
:1004A0000CF00040B1F5000F3EBF490041EAD371A6
:1004B0005B0040EA010062F17F02FD2A1DD8B3F122
:1004C000004F40EBC25008BF20F00100704790F091
:1004D000000F0CF0004C08BF49024CEA502040EAE3
:1004E00051207F3AC2BFD2F1FF0340EAC2507047A9
:1004F00040F400004FF00003013A5DDC12F1190FE7
:10050000DCBF00F000407047C2F10002410021FA58
:1005100002F1C2F1200200FA02FC5FEA310040F170
:10052000000053EA4C0308BF20EADC70704792F0E9
:10053000000F00F0004C02BF400010F4000F013A21
:10054000F9D040EA0C0093F0000F01F0004C02BF1C
:10055000490011F4000F013BF9D041EA0C018FE78B
:100560000CEAD15392EA0C0F18BF93EA0C0F0AD091
:1005700030F0004C18BF31F0004CD8D180EA0100B7
:1005800000F00040704790F0000F17BF90F0004F50
:10059000084691F0000F91F0004F14D092EA0C0F32
:1005A00001D142020FD193EA0C0F03D14B0218BFC5
:1005B000084608D180EA010000F0004040F0FE400B
:1005C00040F40000704740F0FE4040F440007047A7
:1005D0004FF0FF0C1CEAD0521EBF1CEAD15392EA26
:1005E0000C0F93EA0C0F69D0A2EB030280EA010C16
:1005F00049024FEA402037D04FF0805343EA1111AF
:1006000043EA10130CF000408B4238BF5B0042F10C
:100610007D024FF4000C8B4224BF5B1A40EA0C00B1
:10062000B3EB510F24BFA3EB510340EA5C00B3EBE3
:10063000910F24BFA3EB910340EA9C00B3EBD10FD1
:1006400024BFA3EBD10340EADC001B0118BF5FEA23
:100650001C1CE0D1FD2A3FF650AF8B4240EBC2504C
:1006600008BF20F0010070470CF0004C4CEA50200D
:100670007F32C2BFD2F1FF0340EAC250704740F45C
:1006800000004FF00003013A37E792F0000F00F04E
:10069000004C02BF400010F4000F013AF9D040EACC
:1006A0000C0093F0000F01F0004C02BF490011F460
:1006B000000F013BF9D041EA0C0195E70CEAD15358
:1006C00092EA0C0F08D142027FF47DAF93EA0C0F3F
:1006D0007FF470AF084676E793EA0C0F04D14B0223
:1006E0003FF44CAF08466EE730F0004C18BF31F0D5
:1006F000004CCAD130F000427FF45CAF31F00043CF
:100700007FF43CAF5FE700BF4FEA4002B2F1FE4F1B
:100710000FD34FF09E03B3EB12620DD94FEA0023C3
:1007200043F0004310F0004F23FA02F018BF40429C
:1007300070474FF00000704712F1610F01D1420283
:1007400005D110F0004008BF6FF0004070474FF037
:1007500000007047844641EA000313F0030349D1C7
:10076000403A23D30B6803604B6843608B68836017
:10077000CB68C3600B6903614B6943618B6983611B
:10078000CB69C3610B6A03624B6A43628B6A836203
:10079000CB6AC3620B6B03634B6B43638B6B8363EB
:1007A000CB6BC36340304031403ADBD230320BD3A5
:1007B0000B6803604B6843608B688360CB68C360E1
:1007C00010301031103AF3D20C3205D351F8043BFB
:1007D00040F8043B043AF9D2043208D0D2071CBFD7
:1007E00011F8013B00F8013B01D30B880380604600
:1007F000704700BF082A13D38B07B1D010F0030352
:10080000AED0C3F10403D21ADB071CBF11F8013BC1
:1008100000F8013BA4D331F8023B20F8023B9FE7EC
:10082000043AD9D3013A11F8013B00F8013BF9D25F
:100830000B7803704B7843708B78837060467047F9
:10084000084A13685B6A1BB25B42036013680022AC
:100850005A62054803685B6A1BB25B420B6003681F
:100860005A627047EC0500206C050020F8B505467B
:1008700084680368E41A1B4B1C601B4B1868201A21
:10088000FFF79EFD194B1968FFF7EEFD064620465F
:10089000FFF796FD164B1968FFF7E6FD0146304657
:1008A000FFF7DAFC0746134E3068FFF789FD39463B
:1008B000FFF7D2FCFFF728FF3060B0F5E15F02DD03
:1008C0004FF4E15232600B4B1B6813F5E15F02DA23
:1008D000094A084B1A60044B1C60064B1B68EB600E
:1008E000F8BD00BF8C04002094040020000000200C
:1008F0000800002084040020E0E3FFFFF8B505466F
:1009000084680368E41A1B4B1C601B4B1868201A90
:10091000FFF756FD194B1968FFF7A6FD064620465E
:10092000FFF74EFD164B1968FFF79EFD0146304656
:10093000FFF792FC0746134E3068FFF741FD39463A
:10094000FFF78AFCFFF7E0FE3060B0F5E15F02DD03
:100950004FF4E15232600B4B1B6813F5E15F02DA92
:10096000094A084B1A60044B1C60064B1B68EB607D
:10097000F8BD00BF9004002098040020040000206F
:100980000C00002088040020E0E3FFFF10B4C468DE
:1009900053429C4200DAC360C468A24200DAC260DB
:1009A000C868834200DDCB60CB689A4200DACA6037
:1009B00010BC704770B505460C46C368002B0FDBB2
:1009C000214E01222021304601F080FB002210211F
:1009D000304601F07BFB1D4B1B68EA685A630FE051
:1009E000194E00222021304601F070FB0122102117
:1009F000304601F06BFB154B1A68EB685B425363A2
:100A0000E368002B0FDB124D01221021284601F074
:100A10005DFB00222021284601F058FB0B4B1B6890
:100A2000E2689A6370BD0A4D00221021284601F049
:100A30004DFB01222021284601F048FB034B1A6898
:100A4000E3685B42936370BD00080140AC05002081
:100A50000010014010B584B000240EE04FF4807304
:100A6000029301230193074A224400920022782135
:100A7000054801F06BFD0134E4B21A2CEED904B044
:100A800010BD00BF10000020D804002000B587B0C2
:100A900006AA02F8010D4FF480730293012301931B
:100AA000009200227821034801F050FD07B05DF864
:100AB00004FB00BFD804002000B587B006AA02F8E6
:100AC000010D4FF4807302930123019300924022A1
:100AD0007821034801F03AFD07B05DF804FB00BF40
:100AE000D804002008B5C82000F0ACFEFFF7B2FF24
:100AF00008BD00BF38B5002516E0A5F15000C0B212
:100B0000FFF7C4FF0020FFF7C1FF1020FFF7BEFF73
:100B1000002404E00020FFF7CFFF0134E4B214F01A
:100B2000800FF7D00135EDB2072DE6D938BD00BFF3
:100B300010B504465039C8B2FFF7A8FF200940F0AD
:100B40001000FFF7A3FF04F00F00FFF79FFF10BD99
:100B5000F8B507460E46203AD5B210F0800F02D005
:100B60000236F6B20027102B22D131463846FFF765
:100B7000DFFF002407E004EB0513174AD05CFFF702
:100B80009BFF0134E4B2072CF5D9711CC9B2384679
:100B9000FFF7CEFF002408E004EB051308330E4AEC
:100BA000D05CFFF789FF0134E4B2072CF4D9F8BD1B
:100BB00031463846FFF7BCFF002409E005EB45024B
:100BC0005300064A1344185DFFF776FF0134E4B280
:100BD000052CF3D9F8BD00BF20590008105F0008AC
:100BE0002DE9F04104460E461746984600250DE0D3
:100BF000434631462046FFF7ABFF0834E4B2782C79
:100C000002D90236F6B200240135EDB27A5D002A2F
:100C1000EED1BDE8F08100BF10B5FFF76BFF0124F6
:100C200007E00823054A21460120FFF7D9FF0134D8
:100C3000E4B2072CF5D9FFF75DFF10BD005F000897
:100C400000B583B00E4B5A6942F001025A615B69EC
:100C500003F001030193019B002211460C2000F0D8
:100C600017FE0C2000F046FE002211460D2000F079
:100C70000FFE0D2000F03EFE03B05DF804FB00BF48
:100C80000010024008B5012002F0B4FFFBE700BFEE
:100C900010B4002309E0074C18012118002222504B
:100CA000CA604A608A600133DBB2012BF3D910BC01
:100CB000704700BF9C04002008B5FFF7E9FF0D4C0A
:100CC00004F1100529462046FFF7BAFD2046FFF73C
:100CD000CDFD2846FFF712FE41F658322946204640
:100CE000FFF754FE29462046FFF764FE0A2002F073
:100CF00081FFE4E79C04002070B50D4611460023F7
:100D000004E03024194AD4540133DBB2052BF8D95E
:100D1000002803DB2B22154B1A7003E02D22134B06
:100D20001A7040420522124B1A7000220F4B5A7162
:100D300013E00F4B1A78013AD2B21A700D4B83FBB5
:100D40000034C317C3EBA4031E4603EB83035C000C
:100D5000031B30330548835430460028E9D108236B
:100D6000024A2846FFF73CFF70BD00BFBC040020CC
:100D7000CC0400206766666610B5154C0022312150
:100D80002068FFF7B9FF012231216068FFF7B4FF47
:100D900002223121A068FFF7AFFF03223121E06872
:100DA000FFF7AAFF042231212069FFF7A5FF0522E2
:100DB00031216069FFF7A0FF06223121A069FFF70A
:100DC0009BFF07223121E069FFF796FF10BD00BFAE
:100DD0009C04002008B5FFF7CFFF322002F00AFF85
:100DE000F9E700BF38B503785B2B75D14378303B0A
:100DF00003EB830359008378303B1944C3782B2BD2
:100E000003D10279303A042508E02D2B04D1027970
:100E1000C2F13002042501E0002203256B1CC45CF2
:100E20002B2C03D1AB1CC45C303C07E02D2C04D12F
:100E3000AB1CC45CC4F1300400E000240133DBB21D
:100E4000C35C5D2B48D1B2F1FF3F07D1B4F1FF3F46
:100E500004D14B422348836000238361B2F1FF3FFA
:100E600004D11CB94B421F4883608161B2F1FF3F3E
:100E700005D1012C03D11B4B0020986099612AB940
:100E8000B4F1FF3F02D1174B9960996122B91CB9A7
:100E9000144B0020986098612AB9012C03D14B4271
:100EA000104883608361012A06D1B4F1FF3F03D16A
:100EB0000C4B996000209861012A04D11CB9094BA0
:100EC000996048429861012A06D1012C04D1054A53
:100ED000002393604B429361034B1978034800F061
:100EE00081FC38BD9C0400205C07002070060020B7
:100EF00038B50A4D29780A4C2046FFF773FF0021C8
:100F00002970084B19702A78204604F02FFC6422BF
:100F10002146054802F0C6FB38BD00BF5C07002033
:100F200070060020D40600201C07002008B5074BDF
:100F30001B7813F0FF0F05D00221054801F0CCF813
:100F4000FFF7D6FF012002F055FEF0E7D40600209F
:100F50000010014008B50E4A00210E4802F0D6FDEF
:100F60000D4B18600D4A00210D4802F0CFFD0D4BCE
:100F700018600D4A00210D4802F0C8FD0C4B1860A6
:100F80000C4A00210C4802F0C1FD0C4B186008BD52
:100F900038610008850C0008D0040020906100082A
:100FA000B90C0008D4040020D8610008D50D000851
:100FB000C4040020B46100082D0F0008C8040020FC
:100FC0002DE9F04188B00024049405940694079418
:100FD000244B9A6942F020029A619A6902F0200239
:100FE0000092009A9A6942F010029A619A6902F09E
:100FF00010020192019A9A6942F004029A619A6978
:1010000002F004020292029A9A6942F008029A617E
:101010009B6903F008030393039BDFF8508022468B
:101020003221404601F052F80F4D22463021284629
:1010300001F04CF832230493012705970694022609
:10104000079604A9404600F049FF30230493059712
:101050000694079604A9284600F040FF08B0BDE8B2
:10106000F08100BF00100240000801400010014064
:1010700008B50A480A4B03600A4B436000238360AB
:10108000C3604FF48042026143618361C3610362C4
:1010900001F08CF908B100F009F908BDD80400206E
:1010A00000540040A086010010B586B000230293D2
:1010B0000393049305930268144B9A4224D1144C71
:1010C000A36943F00803A361A36903F00803009335
:1010D000009B4FF440730293122303930323059361
:1010E00002A90C4800F0FAFE0B4A536843F0E06393
:1010F00043F002035360E36943F40013E361E369DF
:1011000003F400130193019B06B010BD005400408E
:1011100000100240000C01400000014008B5082307
:10112000174A00210120FFF75BFD0823154A012122
:101130000846FFF755FD0823134A02210120FFF757
:101140004FFD0823114A03210120FFF749FD082321
:101150000F4A04210120FFF743FD08230D4A052112
:101160000120FFF73DFD08230B4A06210120FFF770
:1011700037FD0823094A07210120FFF731FD08BD8B
:10118000FC610008046200080C6200081462000898
:101190001C620008246200082C6200083462000807
:1011A00030B591B02822002106A804F0DFFA00240F
:1011B00001940294039404940594012206924FF43E
:1011C000803307930A9202250D950E934FF4E01396
:1011D0000F9306A801F086FA0F230193029503945A
:1011E0004FF4806304930594294601A801F0CCFCD8
:1011F00011B030BD08B500F001FBFFF7D1FFFFF7DC
:10120000DFFEFFF71DFD00F005F900F0EDF900F03D
:1012100031F900F02FFAFFF72BFF194C01220221C0
:10122000204600F053FFFFF75DFCFFF7F5FCFFF7EA
:1012300075FF0421134802F0BDF80421124802F0A2
:10124000B9F8124D0021284602F08EF804212846F4
:1012500002F08AF80E480268D36843F01003D360A6
:1012600064220C4902F01EFA00220221204600F0FE
:101270002DFF02F003FCFFF76DFE02F021FCFEE7FC
:10128000001001406C050020EC050020AC0500209A
:101290001C0700207006002008B50268024B9A4225
:1012A00001D100F0BDFA08BD002C0140704700BF1D
:1012B00082B00E4B9A6942F001029A619A6902F07B
:1012C00001020092009ADA6942F08052DA61DB6929
:1012D00003F080530193019B054A536823F0E063B8
:1012E00043F00073536002B0704700BF001002402B
:1012F0000000014000B589B000220146192000F02D
:10130000C7FA192000F0F6FA144B9A6942F4006209
:101310009A619B6903F400630193019B02A903A8EE
:1013200001F010FD01F0FEFC0D4BA3FB00239B0C14
:10133000013B0C480C4A026040F2E732C260436055
:1013400000230361836001F0D1FE18B9054801F064
:10135000ADFD00E0012009B05DF804FB0010024083
:1013600083DE1B432C050020002C0140704700BF8A
:10137000FEE700BFFEE700BFFEE700BFFEE700BFDD
:10138000704700BF08B5024800F036FC08BD00BF3A
:101390002C06002008B5024800F02EFC08BD00BF56
:1013A000D806002008B5024801F09AFD08BD00BF2C
:1013B0002C05002008B500F0EBF9024802F0C8FA4D
:1013C00008BD00BF1C0700200F4B1A6842F0010245
:1013D0001A6059680D4A0A405A601A6822F08472ED
:1013E00022F480321A601A6822F480221A605A6845
:1013F00022F4FE025A604FF41F029A604FF000621E
:10140000034B9A60704700BF001002400000FFF8D5
:1014100000ED00E000B58DB02422002103A804F007
:10142000A5F900230193029311484FF08042026016
:10143000436083604FF6FF72C260036183610323E0
:10144000039301230593099303A901F087FE08B1D3
:10145000FFF72CFF00230193029301A9044801F038
:10146000CDFF08B1FFF722FF0DB05DF804FB00BF10
:101470006C05002000B58DB02422002103A804F0E3
:1014800075F90023019302931048114A02604360EA
:1014900083604FF6FF72C26003618361032303938D
:1014A00001230593099303A901F058FE08B1FFF742
:1014B000FDFE00230193029301A9044801F09EFF61
:1014C00008B1FFF7F3FE0DB05DF804FBEC0500205A
:1014D0000008004000B589B00023049305930693EB
:1014E00007930368B3F1804F1BD103F50433DA6926
:1014F00042F00102DA61DA6902F001020092009A18
:101500009A6942F004029A619B6903F00403019313
:10151000019B08A9032341F8103D124800F0DEFCAE
:101520001CE0114A934219D1104BDA6942F00402CF
:10153000DA61DA6902F004020292029A9A6942F0D0
:1015400008029A619B6903F008030393039B08A9AF
:10155000C02341F8103D064800F0C0FC09B05DF81A
:1015600004FB00BF000801400008004000100240DA
:10157000000C01400268084B9A420CD182B003F57E
:101580000333DA6942F00202DA61DB6903F0020335
:101590000193019B02B070470004004000B587B082
:1015A0000023029303930493059302680C4B9A4221
:1015B00013D103F503339A6942F004029A619B69DF
:1015C00003F004030193019BC023029302230393BE
:1015D000059302A9034800F081FC07B05DF804FB05
:1015E000000400400008014000B58BB000230893C0
:1015F000099301930293039304930593069307932E
:101600001A481B4A02604360836041F61F42C26071
:101610000361836101F086FD08B1FFF747FE0023F7
:101620000893099308A9114801F0E8FE08B1FFF7F3
:101630003DFE60230193002202920392059201A9CC
:101640000A4801F013FE08B1FFF730FE04220DEB4B
:101650000201064801F00AFE08B1FFF727FE034821
:10166000FFF79CFF0BB05DF804FB00BFAC0500204A
:101670000004004008B50A480A4B03604FF4E13308
:10168000436000238360C36003610C224261836175
:10169000C36101F08FFF08B1FFF708FE08BD00BF6E
:1016A0001C0700200048004070B586B0002302935C
:1016B00003930493059302682F4B9A425AD1044630
:1016C00003F5E433DA6942F48022DA61DA6902F47C
:1016D00080220092009A9A6942F008029A619B69FE
:1016E00003F008030193019B4FF4806302930223EC
:1016F000039303230593214E02A9304600F0EEFB2D
:101700004FF40063029300250395049502A9304627
:1017100000F0E4FB1A481B4B0360456085608023A2
:10172000C360056145618561C56100F007F908B1D5
:10173000FFF7BCFD124B63635C621348134B0360FD
:1017400010234360002383608022C26003614361F1
:101750008361C36100F0F2F808B1FFF7A7FD0A4BFF
:1017600023635C6200221146272000F091F82720B5
:1017700000F0C0F806B070BD00480040000C014009
:10178000D8060020300002402C0600201C00024039
:10179000104B1B681A6812F0100F19D000B583B0F7
:1017A000002201921A6801925B680193019B09482B
:1017B00001F0CCFF084B1B685B68C3F16403DBB22C
:1017C000064A13700122064B1A7003B05DF804FB41
:1017D000704700BF1C070020D80600205C070020CF
:1017E000D406002008B50A460146034801F014FF5C
:1017F00008B1FFF75BFD08BD1C07002008B5074ACC
:10180000136843F010031360032000F02FF800204A
:10181000FFF770FDFFF74CFD002008BD00200240DF
:10182000034A1368034909780B441360704700BFEB
:101830006007002034000020014B1868704700BF8B
:101840006007002038B50446FFF7F6FF0546B4F1FF
:10185000FF3F02D0044B1B781C44FFF7EDFF401BF9
:101860008442FAD838BD00BF34000020074AD3684C
:1018700023F4E0631B041B0C000200F4E060184337
:1018800040F0BF6040F40030D060704700ED00E0F1
:1018900030B4164BDB68C3F30223C3F10704042CF6
:1018A00028BF04241D1D062D01D9DD1E00E00025E2
:1018B000012303FA04F4013C2140A940AB40013B61
:1018C0001A400A43002808DB1201D2B200F160403E
:1018D00000F5614080F8002305E000F00F001201E0
:1018E000D2B2034B1A5430BC704700BF00ED00E089
:1018F00014ED00E0002808DB420900F01F0001237E
:1019000003FA00F0014B43F82200704700E100E0C9
:1019100070B4C56B066C0124B4406C6004686360ED
:101920004368102B04D103689A600368D96003E010
:10193000036899600368DA6070BC704700283AD089
:1019400010B4034601681E4A91420AD81D4A0A444F
:101950001D49A1FB02121209920002641B4AC263D4
:1019600009E01B4A0A441849A1FB0212120992001D
:101970000264184AC263022283F821201C6822688C
:1019800022F47F5121F0300158689A681043DA68D8
:1019900010431A6910435A6910439A691043DA696F
:1019A00002430A43226000209863012283F8212029
:1019B00083F8200001E00120704710BC704700BF91
:1019C00007040240F8FFFDBFCDCCCCCC00000240A4
:1019D000F8FBFDBF0004024038B590F82040012C10
:1019E00032D0012480F8204090F82140012C26D1EB
:1019F0000446022084F821000020A063256828689E
:101A000020F0010028602046FFF782FFE36A2BB137
:101A10002268136843F00E03136009E0226813681C
:101A200023F0040313602268136843F00A03136071
:101A30002268136843F001031360002038BD0023BF
:101A400080F82030022038BD022038BD90F82130C7
:101A5000022B06D004238363002380F8203001206A
:101A600070470268136823F00E031360026813685E
:101A700023F001031360C16B036C012202FA03F32C
:101A80004B6080F82120002380F8203018467047F2
:101A900008B590F82130022B03D004238363012082
:101AA00008BD0268136823F00E0313600268136810
:101AB00023F00103136003684B4A934243D9783AF9
:101AC000934221D01432934220D0143293421FD03B
:101AD000143293421FD0143293421FD014329342D7
:101AE0001FD0143293421FD002F5627293421ED06F
:101AF000143293421DD0143293421CD014329342BC
:101B00001CD14FF480521BE0012219E0102217E093
:101B10004FF4807214E04FF4805211E04FF48032A1
:101B20000EE04FF480120BE04FF0807208E00122CB
:101B300006E0102204E04FF4807201E04FF480329E
:101B40002A4B5A6042E02A4A934221D014329342EF
:101B500020D0143293421FD0143293421FD014323B
:101B600093421FD0143293421FD0143293421FD09D
:101B700002F5627293421ED0143293421DD0143289
:101B800093421CD0143293421CD14FF480521BE07C
:101B9000012219E0102217E04FF4807214E04FF494
:101BA000805211E04FF480320EE04FF480120BE0CF
:101BB0004FF0807208E0012206E0102204E04FF4AA
:101BC000807201E04FF480320A4B5A60012380F8A2
:101BD0002130002380F82030436B13B19847002058
:101BE00008BD002008BD00BF800002400004024084
:101BF000080002400000024038B5C36B1A68046850
:101C00002568016C04238B401A4200F09D8015F07A
:101C1000040F00F09980236813F0200F03D123688C
:101C200023F0040323600368A84A934243D9783A17
:101C3000934221D01432934220D0143293421FD0C9
:101C4000143293421FD0143293421FD01432934265
:101C50001FD0143293421FD002F5627293421ED0FD
:101C6000143293421DD0143293421CD0143293424A
:101C70001CD14FF480421BE0042219E0402217E0FF
:101C80004FF4806214E04FF4804211E04FF4802260
:101C90000EE04FF480020BE04FF0806208E0042277
:101CA00006E0402204E04FF4806201E04FF480221D
:101CB000874B5A6042E0874A934221D014329342C4
:101CC00020D0143293421FD0143293421FD01432CA
:101CD00093421FD0143293421FD0143293421FD02C
:101CE00002F5627293421ED0143293421DD0143218
:101CF00093421CD0143293421CD14FF480421BE01B
:101D0000042219E0402217E04FF4806214E04FF4FF
:101D1000804211E04FF480220EE04FF480020BE08D
:101D20004FF0806208E0042206E0402204E04FF415
:101D3000806201E04FF48022674B5A60C36A002B37
:101D400000F0C380984738BD02238B401A4200F050
:101D5000A18015F0020F00F09D80236813F0200F82
:101D600006D1236823F00A032360012380F8213081
:101D70000368564A934243D9783A934221D01432A9
:101D8000934220D0143293421FD0143293421FD07A
:101D9000143293421FD0143293421FD01432934214
:101DA0001FD002F5627293421ED0143293421DD0AE
:101DB000143293421CD0143293421CD14FF400527F
:101DC0001BE0022219E0202217E04FF4007214E019
:101DD0004FF4005211E04FF400320EE04FF40012C5
:101DE0000BE04FF0007208E0022206E0202204E03F
:101DF0004FF4007201E04FF40032354B5A6042E07C
:101E0000344A934221D01432934220D01432934268
:101E10001FD0143293421FD0143293421FD0143279
:101E200093421FD0143293421FD002F56272934244
:101E30001ED0143293421DD0143293421CD014325F
:101E400093421CD14FF400521BE0022219E02022E1
:101E500017E04FF4007214E04FF4005211E04FF419
:101E600000320EE04FF400120BE04FF0007208E079
:101E7000022206E0202204E04FF4007201E04FF459
:101E80000032154B5A60002380F82030836AE3B19A
:101E9000984738BD082303FA01F10A4215D015F01E
:101EA000080F12D0236823F00E032360C16B026C6D
:101EB000012303FA02F24A60836380F82130002391
:101EC00080F82030036B03B1984738BD8000024092
:101ED000000402400800024000000240F0B583B058
:101EE00000263446DEE00122A24013409A4240F030
:101EF000D8804D68122D2DD00BD8022D27D003D8B5
:101F00005DB3012D1ED035E0032D30D0112D1BD037
:101F100030E0684FBD4220D008D8A7F58017BD42F9
:101F20001BD007F58037BD4224D116E0624FBD4279
:101F300013D007F58037BD420FD0A7F58017BD42FB
:101F400018D10AE0CE6815E0CE68043612E0CE68FB
:101F500008360FE0CE680C360CE08D684DB1012DCF
:101F600002D10261082605E04261082602E000264F
:101F700000E00426FF2B01D8864601E000F1040EA4
:101F8000FF2B01D8A20002E0A4F108029200DEF8C3
:101F900000700F25954027EA050506FA02F22A434C
:101FA000CEF800204A6812F0805F7AD0434A9569E3
:101FB00045F001059561926902F001020192019AD2
:101FC000A708BD1C3E4A52F825E004F00302920027
:101FD0000F2595402EEA050E3A4DA84215D005F57D
:101FE0008065A84213D005F58065A84211D005F59B
:101FF0008065A8420FD005F58065A8420DD005F593
:102000008065A8420BD105250AE0002508E00125DE
:1020100006E0022504E0032502E0042500E0062591
:1020200005FA02F24EEA02020237254D45F8272052
:102030004A6812F4803F05D005F580652A681A4386
:102040002A6004E0204D2A6822EA03022A604A68D6
:1020500012F4003F04D01C4D6A681A436A6004E021
:10206000194D6A6822EA03026A604A6812F4801F06
:1020700004D0154DAA681A43AA6004E0124DAA685C
:1020800022EA0302AA604A6812F4001F04D00E4D2F
:10209000EA681343EB6004E00B4DEA6822EA0303AD
:1020A000EB6001340B6833FA04F27FF41CAF03B029
:1020B000F0BD00BF000021100000311000100240F0
:1020C0000000014000080140000401400AB1016124
:1020D0007047090401617047C3680B4201D0416138
:1020E00070470161704700BF03685A6912F4806F3E
:1020F00011D06FF480625A6100230363202280F8BC
:102100003D2080F83E30026C42F00402026480F808
:102110003C30012070470020704700BFF8B50646EC
:102120000C4617461D4618E0B5F1FF3F15D0FFF7E6
:1021300083FB069BC01A854200D375B90023336325
:10214000202286F83D2086F83E30326C42F0200294
:10215000326486F83C300120F8BDC4F30743012BFC
:1021600008D133685B6924EA03039BB2B3FA83F3B3
:102170005B0907E033689B6924EA03039BB2B3FA67
:1021800083F35B09BB42CFD00020F8BDF8B504460D
:102190000D4616461F4633E023685A6912F4806FD5
:1021A00016D01A6842F400721A6023686FF48062D5
:1021B0005A6100232363202284F83D2084F83E30B6
:1021C000226C42F00402226484F83C300120F8BD05
:1021D000B6F1FF3F14D0FFF72FFBC01B864200D3A0
:1021E00076B900232363202284F83D2084F83E3012
:1021F000226C42F02002226484F83C300120F8BDB9
:10220000C5F30743012B08D123685B6925EA030363
:102210009BB2003318BF012307E023689B6925EABE
:1022200003039BB2003318BF0123002BB4D100205D
:10223000F8BD00BF70B504460D4616461BE02046AB
:10224000FFF752FFF0B9B5F1FF3F14D0FFF7F4FAF2
:10225000801B854200D375B900232363202284F8B4
:102260003D2084F83E30226C42F02002226484F843
:102270003C30012070BD23685B6913F0800FDED015
:10228000002070BD012070BD2DE9F04184B00446EE
:102290000E46174698460B9D0268136843F48073F8
:1022A000136000950A9B00224FF00111FFF736FFE3
:1022B000002843D1236806F0FE061E612B460A9AC9
:1022C00024492046FFF762FF002839D100230393F9
:1022D00023685A6903929B690393039B2A460A99D0
:1022E0002046FFF7A7FF034648B1236C042B29D1F2
:1022F0002268136843F400731360012325E0B8F1EA
:10230000010F03D12268FFB217611EE023683A0A69
:102310001A612A460A992046FFF78CFF034648B106
:10232000236C042B10D12268136843F400731360EC
:1023300001230AE02268FFB2176106E0012304E0EE
:10234000012302E0012300E00123184604B0BDE8A8
:10235000F08100BF0200010070B504460D4616462C
:102360001BE02046FFF7C0FEF0B9B5F1FF3F14D0E7
:10237000FFF762FA801B854200D375B900232363FF
:10238000202284F83D2084F83E30226C42F0200266
:10239000226484F83C30012070BD23685B6913F02F
:1023A000040FDED0002070BD012070BD002800F0B9
:1023B000BF80F8B5044690F83D3013F0FF0F04D10C
:1023C000002380F83C30FEF76FFE242384F83D3074
:1023D0002268136823F00103136000F093FC626825
:1023E000554B9A4205D8554B98428CBF0023012388
:1023F00004E0534B98428CBF00230123002B40F094
:102400009980504BA3FB00239B0C21684A6822F063
:102410003F021A434A6025682A6A22F03F02666832
:1024200045498E4201D8013308E04FF4967101FB13
:1024300003F34549A1FB03139B09013313432B62AB
:102440002568E96921F44F4121F0FF0166683A4BA4
:102450009E420AD8431E7000B3FBF0F00130C0F377
:102460000B00042838BF042035E0A3685BB9421E86
:1024700006EB4607B2FBF7F20132C2F30B02B2FAE7
:1024800082F252090CE0421E06EB860707EB870733
:10249000B2FBF7F20132C2F30B02B2FA82F2520936
:1024A000C2B953B9421E06EB4600B2FBF0F0013050
:1024B000C0F30B0343F400400DE0421E06EB86061A
:1024C00006EB8606B2FBF6F30133C3F30B0343F4CA
:1024D000404000E001200843E86121680B6823F0D8
:1024E000C002E069236A034313430B6021688B68D1
:1024F00023F4034222F0FF022069E36803431343FD
:102500008B602168CB6823F0FF026069A3690343F5
:102510001343CB602268136843F00103136000206B
:102520002064202384F83D30206384F83E00F8BD09
:10253000012070470120F8BDA08601007F841E00A5
:10254000FF083D0083DE1B43D34D62102DE9F041AF
:1025500082B004460E4617469846FFF76DF994F888
:102560003D30DBB2202B40F09380054600901923CC
:1025700001224F492046FFF7D1FD002840F08A8014
:1025800094F83C30012B00F08780012384F83C3024
:1025900023681A6812F0010F03D11A6842F0010291
:1025A0001A602268136823F400631360212384F8FF
:1025B0003D30402384F83E3000232364089B63624F
:1025C000BDF824306385638D23853A4BE362019522
:1025D0000A9B009343463A4631462046FFF754FE95
:1025E000002833D05AE02A460A992046FFF722FEF7
:1025F00048B1236C042B53D12268136843F4007351
:10260000136001234FE02368626A12781A61616ADD
:102610004B1C6362228D013A92B22285638D9BB27C
:10262000013B9BB263852368586910F0040F0DD0FD
:1026300062B14A781A61636A01336362238D013B98
:102640002385638D9BB2013B9BB26385238D002B59
:10265000C9D12A460A992046FFF77EFE034648B1B3
:10266000236C042B1ED12268136843F4007313609B
:10267000012318E021680A6842F400720A602022EF
:1026800084F83D20002284F83E2084F83C200AE0B3
:10269000022308E0022306E0022304E0012302E013
:1026A000012300E00123184602B0BDE8F08100BF1D
:1026B000020010000000FFFF82B0084B1B68084AB0
:1026C000A2FB03235B0A00FB03F0019000BF019B08
:1026D0005A1E0192002BF9D102B070472C00002045
:1026E000D34D6210002800F0EC8170B582B0044632
:1026F000036813F0010F6BD0A84B5B6803F00C0369
:10270000042B0AD0A54B5B6803F00C03082B0DD1FA
:10271000A24B5B6813F4803F08D0A04B1B6813F4F6
:10272000003F55D06368002B52D1CCE16368B3F50C
:10273000803F05D1994A136843F48033136026E043
:1027400063B903F1804303F504331A6822F480323D
:102750001A601A6822F480221A6018E0B3F5A02FDC
:102760000CD103F18043A3F53C331A6842F4802274
:102770001A601A6842F480321A6008E0874B1A68BF
:1027800022F480321A601A6822F480221A60636888
:102790007BB1FFF751F8054605E0FFF74DF8401B08
:1027A000642800F292817D4B1B6813F4003FF4D043
:1027B0000EE0FFF741F8054605E0FFF73DF8401B46
:1027C000642800F28481754B1B6813F4003FF4D138
:1027D000236813F0020F50D0704B5B6813F00C0F9E
:1027E0000AD06E4B5B6803F00C03082B16D16B4BC1
:1027F0005B6813F4803F11D1684B1B6813F0020F24
:1028000003D02369012B40F06481644A136823F0EC
:10281000F803616943EAC10313602EE02369D3B171
:1028200001225F4B1A60FFF707F8054605E0FFF746
:1028300003F8401B022800F24E81584B1B6813F02E
:10284000020FF4D0554A136823F0F803616943EA94
:10285000C103136011E00022514B1A60FEF7ECFF38
:10286000054605E0FEF7E8FF401B022800F235812F
:102870004A4B1B6813F0020FF4D1236813F0080FC2
:1028800029D0A369ABB10122464B1A60FEF7D4FFF1
:10289000054605E0FEF7D0FF401B022800F21F812D
:1028A0003E4B5B6A13F0020FF4D00120FFF704FFE8
:1028B00011E000223B4B1A60FEF7BEFF054605E023
:1028C000FEF7BAFF401B022800F20B81334B5B6A14
:1028D00013F0020FF4D1236813F0040F00F08B8083
:1028E0002E4BDB6913F0805F0BD12C4BDA6942F081
:1028F0008052DA61DB6903F080530193019B01256B
:1029000000E00025284B1B6813F4807F13D1264A72
:10291000136843F480731360FEF78EFF064605E0EC
:10292000FEF78AFF801B642800F2DD801E4B1B68C7
:1029300013F4807FF4D0E368012B05D1174A136AA2
:1029400043F00103136222E063B903F1804303F50E
:1029500004331A6A22F001021A621A6A22F004028F
:102960001A6214E0052B09D10C4B1A6A42F00402DA
:102970001A621A6A42F001021A6208E0074B1A6AE8
:1029800022F001021A621A6A22F004021A62E36853
:10299000D3B1FEF751FF064610E000BF0010024021
:1029A000000042428004424200700040FEF744FFB3
:1029B000801B41F28833984200F29780544B1B6A87
:1029C00013F0020FF2D010E0FEF736FF064607E0E4
:1029D000FEF732FF801B41F28833984200F2878075
:1029E0004B4B1B6A13F0020FF2D125B1484AD36951
:1029F00023F08053D361E369002B7AD0444A5268B4
:102A000002F00C02082A4CD0022B37D10022414B95
:102A10001A60FEF711FF054604E0FEF70DFF401BAC
:102A2000022868D83A4B1B6813F0007FF5D1236A5F
:102A3000B3F5803F06D136494B6823F40032A368D2
:102A400013434B603248436823F47411236A626A6B
:102A500013430B43436001222E4B1A60FEF7ECFE3A
:102A6000044604E0FEF7E8FE001B022845D8284B88
:102A70001B6813F0007FF5D0002047E00022254BB3
:102A80001A60FEF7D9FE044604E0FEF7D5FE001BEF
:102A9000022834D81E4B1B6813F0007FF5D10020AC
:102AA00034E0012B2DD01A4B5B6803F48031226A8D
:102AB000914228D103F47013626A934225D0012019
:102AC00024E001207047012020E003201EE00320C5
:102AD0001CE001201AE0032018E0032016E0032088
:102AE00014E0032012E0032010E003200EE0032096
:102AF0000CE000200AE0032008E0032006E00320A9
:102B000004E0012002E0012000E0002002B070BDDE
:102B1000001002406000424230B486B0164D02AC54
:102B200028686968AA68EB680FC42B8AADF804307E
:102B3000124B5B6803F00C02082A19D1C3F38342DD
:102B400006A90A4412F8100C13F4803F0CD00B4B6A
:102B50005B68C3F340430B4413F8142C084B03FB8E
:102B600000F0B0FBF2F004E0064B03FB00F000E0E5
:102B7000034806B030BC70470C59000800100240F2
:102B800000127A0000093D00002800F09D8070B519
:102B90000446544B1B6803F007038B420BD2514A87
:102BA000136823F007030B431360136803F0070354
:102BB000994240F08B80236813F0020F17D013F076
:102BC000040F04D0484A536843F4E0635360236819
:102BD00013F0080F04D0444A536843F46053536021
:102BE0004148436823F0F002A368134343600D4655
:102BF000236813F0010F2ED06268012A05D13A4BE9
:102C00001B6813F4003F0DD162E0022A05D1364B58
:102C10001B6813F0007F05D15CE0334B1B6813F099
:102C2000020F59D030494B6823F0030313434B6024
:102C3000FEF702FE064606E0FEF7FEFD801B41F2AF
:102C4000883398424AD8284B5B6803F00C036268CB
:102C5000B3EB820FF0D1234B1B6803F007039D42B7
:102C60000AD2204A136823F007032B43136013682A
:102C700003F007039D4233D1236813F0040F06D0FD
:102C800019494B6823F4E062E36813434B602368FF
:102C900013F0080F07D0144A536823F460532169D6
:102CA00043EAC1035360FFF737FF0F4B5B68C3F381
:102CB00003130E4AD35CD8400D4B18600D4B1868B7
:102CC000FEF718FB002070BD01207047012070BD89
:102CD000012070BD012070BD012070BD032070BDBA
:102CE000012070BD00200240001002403C6200083C
:102CF0002C00002030000020014B1868704700BFF6
:102D00002C00002008B5FFF7F7FF044B5B68C3F306
:102D10000223034AD35CD84008BD00BF0010024024
:102D20004C62000808B5FFF7E7FF044B5B68C3F38C
:102D3000C223034AD35CD84008BD00BF0010024044
:102D40004C6200080F2303600B4B5A6802F0030229
:102D500042605A6802F0F00282605A6802F4E0624F
:102D6000C2605B68DB0803F4E0630361034B1B682C
:102D700003F007030B607047001002400020024080
:102D800070B4036A23F001030362036A4668826930
:102D900022F073020C6842EA040523F002028B68F9
:102DA00013430F4CA04202D00E4A904205D123F0AB
:102DB0000803CA68134323F00403094CA04202D05D
:102DC000084A904205D126F440764A6932438E691A
:102DD0001643466085614A684263036270BC70476F
:102DE000002C01400034014030B4036A23F48073A6
:102DF0000362036A4568C26922F073020C682243C9
:102E000023F400738C6843EA0423124CA04203D0DD
:102E100004F50064A04206D123F40063CC6843EAC1
:102E2000042323F480630B4CA04203D004F5006418
:102E3000A04207D125F440554C6945EA04158C6938
:102E400045EA04154560C2614A68C263036230BC4A
:102E5000704700BF002C014030B4036A23F4805354
:102E60000362036A4468C26922F4E6420D6842EADA
:102E7000052223F400538D6843EA0533094DA84227
:102E800003D005F50065A84204D124F480444D69BF
:102E900044EA85144460C2614A680264036230BC3B
:102EA000704700BF002C0140704700BF0268D36824
:102EB00043F00103D3600268936803F00703062B15
:102EC00003D0136843F0010313600020704700BF74
:102ED000704700BF704700BF704700BF704700BF1A
:102EE00010B5044603681A6912F0020F17D0DA68A9
:102EF00012F0020F13D06FF002021A610123037760
:102F000003689B6913F0030F02D0FFF7E3FF04E0AF
:102F1000FFF7DEFF2046FFF7DFFF0023237723685C
:102F20001A6912F0040F19D0DA6812F0040F15D0E4
:102F30006FF004021A610223237723689B6913F45C
:102F4000407F03D02046FFF7C5FF05E02046FFF78E
:102F5000BFFF2046FFF7C0FF0023237723681A69CD
:102F600012F0080F19D0DA6812F0080F15D06FF0C0
:102F700008021A61042323772368DB6913F0030F27
:102F800003D02046FFF7A6FF05E02046FFF7A0FF8D
:102F90002046FFF7A1FF0023237723681A6912F068
:102FA000100F19D0DA6812F0100F15D06FF0100260
:102FB0001A61082323772368DB6913F4407F03D069
:102FC0002046FFF787FF05E02046FFF781FF2046F8
:102FD000FFF782FF0023237723681A6912F0010F9D
:102FE00009D0DA6812F0010F05D06FF001021A6102
:102FF0002046FEF751F923681A6912F0800F09D0B4
:10300000DA6812F0800F05D06FF080021A61204656
:1030100000F01AFA23681A6912F0400F09D0DA6832
:1030200012F0400F05D06FF040021A612046FFF702
:1030300055FF23681A6912F0200F09D0DA6812F0E0
:10304000200F05D06FF020021A61204600F0FAF937
:1030500010BD00BF0368244A904212D002F50062FE
:1030600090420ED0B0F1804F0BD0A2F59832904232
:1030700007D002F58062904203D002F58062904250
:1030800003D123F070034A681343174A904212D0C9
:1030900002F5006290420ED0B0F1804F0BD0A2F545
:1030A0009832904207D002F58062904203D002F538
:1030B0008062904203D123F44073CA68134323F023
:1030C00080034A69134303608B68C3620B688362A1
:1030D000054B984203D003F50063984201D10B6978
:1030E0000363012343617047002C0140B8B110B560
:1030F000044690F83D3013F0FF0F04D1002380F810
:103100003C30FFF7D1FE022384F83D30211D2068BA
:10311000FFF7A0FF012384F83D30002010BD0120FF
:10312000704700BFB8B110B5044690F83D3013F0B9
:10313000FF0F04D1002380F83C30FEF71BFA022376
:1031400084F83D30211D2068FFF784FF012384F8B7
:103150003D30002010BD0120704700BF00284AD03C
:10316000F8B505460C4690F83D3013F0FF0F04D13A
:10317000002380F83C30FEF7ADF9022385F83D309E
:10318000294651F8042B936823F4804323F0070366
:1031900093602868FFF75EFF296888688B690F6A6B
:1031A0002268104323F4407323F00303A268A66946
:1031B00042EA0622134323F47C4323F0FC03E6682F
:1031C000E26946EA02263343226A1203266942EA8A
:1031D0000612134327F022076668626946EA021264
:1031E0003A43886029688B612B681A62012385F84D
:1031F0003D300020F8BD0120704700BF30B4036AA5
:1032000023F010030362036A4468826922F4E642F1
:103210000D6842EA052223F020038D6843EA051376
:10322000114DA84203D005F50065A84206D123F050
:103230008003CD6843EA051323F040030A4DA842FA
:1032400003D005F50065A84207D124F440644D6918
:1032500044EA85048D6944EA8504446082614A68D1
:103260008263036230BC7047002C014038B590F88F
:103270003C30012B66D00D460446012380F83C30DB
:10328000022380F83D300C2A55D8DFE802F00754BD
:1032900054541A5454542E54545441000068FFF7A7
:1032A0006FFD2268936943F0080393612268936974
:1032B00023F004039361226891692B690B439361A6
:1032C00039E00068FFF79AFF2268936943F40063CE
:1032D00093612268936923F4806393612268936900
:1032E000296943EA0123936125E00068FFF77CFD2B
:1032F0002268D36943F00803D3612268D36923F0BD
:103300000403D3612268D1692B690B43D36112E0B6
:103310000068FFF7A1FD2268D36943F40063D3611D
:103320002268D36923F48063D3612268D369296951
:1033300043EA0123D361012384F83D30002084F85F
:103340003C0038BD022038BD10B401F01F0101233C
:1033500003FA01F4036A23EA04030362036A8A405E
:103360001A43026210BC704710B50446012200687F
:10337000FFF7EAFF23680E4A934205D002F5006288
:10338000934203D1012202E0012200E000221AB19F
:103390005A6C42F400425A642268936803F00703AF
:1033A000062B03D0136843F001031360002010BD07
:1033B000002C014010B5044611B1042906D00BE0E1
:1033C000012200210068FFF7BFFF0FE00122042166
:1033D0000068FFF7B9FF09E0012200210068FFF74C
:1033E000B3FF012204212068FFF7AEFF22681368B3
:1033F00043F001031360002010BD00BF90F83C3083
:10340000012B1BD070B4012680F83C60022380F8A9
:103410003D3002685468936824F070050C682C43B2
:1034200023F080054B682B4354600268936080F85A
:103430003D60002380F83C30184601E002207047D0
:1034400070BC7047704700BF704700BF0268D36808
:1034500023F0C003D360202380F83930704700BFC9
:103460000268D36823F49073D3600268536923F031
:1034700001035361202380F83A30704790F83930C7
:10348000DBB2212B2BD18368B3F5805F0FD1036AA8
:1034900002681B88C3F30803536003691BB9036AFE
:1034A0000233036209E0036A0133036205E0026844
:1034B000036A591C01621B785360C38C9BB2013BA9
:1034C0009BB2C3846BB90268D36823F08003D360D6
:1034D0000268D36843F04003D360002070470220A5
:1034E00070470020704700BF10B5044601680B69A3
:1034F00023F44052C36813430B6181680369194385
:10350000436919430068C26822F4B05323F00C03E6
:103510000B43C36021684B6923F44072A3691343D2
:103520004B612268214B9A421FD1FFF7FBFB2168B8
:1035300000EB800000EB800063689B00B0FBF3F0C1
:103540001B4BA3FB00246409642202FB140212013A
:103550003232A3FB02235B0903F0F00202EB0414F6
:1035600003F00F0323448B6010BDFFF7CBFB2168F2
:1035700000EB800000EB800063689B00B0FBF3F081
:103580000B4BA3FB00246409642202FB140212010A
:103590003232A3FB02235B0903F0F00202EB0414B6
:1035A00003F00F0323448B6010BD00BF00380140BF
:1035B0001F85EB5168B310B5044690F8393013F00D
:1035C000FF0F04D1002380F83830FEF76DF8242374
:1035D00084F839302268D36823F40053D36020463E
:1035E000FFF782FF2268136923F490431361226876
:1035F000536923F02A0353612268D36843F40053CC
:10360000D3600020E063202384F8393084F83A3016
:1036100010BD0120704700BF38B590F83940E4B2C2
:10362000202C31D1002931D0002A31D090F8383007
:10363000012B2FD013460446012280F83820016266
:103640008384C3840025C563212280F83920026B5E
:1036500011489062226B1148D062226B10481063AF
:10366000226B556322680432206BFEF7B5F923689C
:103670006FF040021A6084F838502268536943F0B2
:1036800080035361284638BD022038BD012038BD73
:10369000012038BD022038BDAD370008FD370008D5
:1036A0000139000830B583B090F83A40E4B2202CDC
:1036B0003DD100293DD0002A3DD090F83830012B73
:1036C0003BD013460A460446012180F83810826236
:1036D00083850025C563222180F83A10416B184884
:1036E0008862616B1748C862616B17480863616B39
:1036F0004D6321680431606BFEF76EF90195236814
:103700001A6801925A680192019A84F83850DA686E
:1037100042F48072DA602268536943F00103536116
:103720002268536943F040035361284606E00220B3
:1037300004E0012002E0012000E0022003B030BDDF
:103740000D380008F13800080139000810B50446AA
:1037500001684B6903F0800290F83930DBB2212B0D
:103760000BD152B14B6923F080034B61006B08B160
:10377000FEF76CF92046FFF769FE21684B6903F0FC
:10378000400294F83A30DBB2222B0BD152B14B6994
:1037900023F040034B61606B08B1FEF757F92046F8
:1037A000FFF75EFE002010BD704700BF08B5436AFA
:1037B0000268126812F0200F0CD10022DA84196816
:1037C0004A6922F080024A611A68D36843F04003D4
:1037D000D36008BD1846FFF7E7FF08BD08B50168CC
:1037E000CB6823F04003CB60202380F83930FFF70B
:1037F000DBFF002008BD00BF704700BF08B5406A6E
:10380000FFF7FAFF08BD00BF704700BF08B5436A65
:103810000268126812F0200F13D10022DA851968AD
:10382000CA6822F48072CA6019684A6922F00102EB
:103830004A6119684A6922F040024A61202283F8ED
:103840003A201846FFF7E0FF08BD00BF08B590F822
:103850003A30DBB2222B44D18368B3F5805F13D1B9
:10386000826A036943B903685B68C3F30803138082
:10387000836A0233836218E003685B68DBB21380FB
:10388000836A0133836210E0036933B9836A5A1C87
:103890008262026852681A7007E0826A531C83626F
:1038A00003685B6803F07F031370C38D9BB2013B19
:1038B0009BB2C385BBB90268D36823F02003D360F1
:1038C0000268D36823F48073D3600268536923F0DD
:1038D00001035361202380F83A30FFF795FF002061
:1038E00008BD022008BD002008BD00BF704700BF12
:1038F00008B5406AFFF7FAFF08BD00BF704700BF78
:1039000010B5446A23685B6903F0800294F839308B
:10391000DBB2212B05D122B10023E3842046FFF73F
:1039200095FD23685B6903F0400294F83A30DBB2FE
:10393000222B05D122B10023E3852046FFF790FD1D
:10394000E36B43F01003E3632046FFF7D7FF10BD9E
:1039500010B5044602681368D168526913F00F006D
:1039600009D113F0200F06D011F0200F03D020460C
:10397000FFF76CFF10BD002862D012F0010202D1E7
:1039800011F4907F5CD013F0010F06D011F4807F0A
:1039900003D0E06B40F00100E06313F0040F04D0AB
:1039A0001AB1E06B40F00200E06313F0020F04D0A4
:1039B0001AB1E06B40F00400E06313F0080F04D08C
:1039C0001AB1E26B42F00802E263E26B002A4AD0CD
:1039D00013F0200F05D011F0200F02D02046FFF782
:1039E00035FF23685B6903F04003E26B12F0080FB8
:1039F00000D1FBB12046FFF733FD23685A6912F06E
:103A0000400F13D05A6922F040025A61636B4BB1E8
:103A1000154A5A63606BFEF73BF820B3606B436B4B
:103A2000984710BD2046FFF769FF10BD2046FFF7FD
:103A300065FF10BD2046FFF761FF0023E36310BD63
:103A400013F0800F06D011F0800F03D02046FFF74F
:103A500015FD10BD13F0400F05D011F0400F02D03E
:103A60002046FFF7BBFE10BD6D3A000808B5406A5E
:103A70000023C385C384FFF741FF08BDEFF305832F
:103A80007BB9EFF310837BB90C4B1B68022B02D17F
:103A9000EFF311825AB96BB90122084B1A6000206A
:103AA00070476FF0050070476FF0050070476FF0CA
:103AB000050070474FF0FF30704700BFC00D002079
:103AC00008B5EFF3058393B9EFF3108393B90E4B69
:103AD0001B68022B02D1EFF3118272B9012B0FD1B7
:103AE0000222094B1A6001F0E9F8002008BD6FF0CE
:103AF000050008BD6FF0050008BD6FF0050008BDAA
:103B00004FF0FF3008BD00BFC00D0020F0B587B0FA
:103B100000240494EFF30584002C61D1EFF31083AB
:103B2000002B5DD1324B1B68022B03D1EFF31183C5
:103B3000002B55D1002853D000238DF8173022B325
:103B400016680EB90DF11706946904B91824631E9E
:103B5000372B47D8536813F0010F45D1536913B180
:103B60004FEA930E01E04FF0800E95682DB1D768B3
:103B70005B2F02D9176907B173B97DB9D36883B9CF
:103B800013698BB14FF0FF350FE0002518244FF07B
:103B9000800E0DF1170608E0012506E04FF0FF3515
:103BA00003E04FF0FF3500E000250B46012D0AD160
:103BB000116992680292019100947246314601F0B7
:103BC0000BF804900CE05DB904AA019200941FFA6E
:103BD0008EF2314601F03EF8012801D00023049313
:103BE000049802E0002000E0002007B0F0BD00BF14
:103BF000C00D002008B5EFF3058373B9EFF3108310
:103C000073B90B4B1B68022B02D1EFF3118353B92D
:103C100060B101F0BBF9002008BD6FF0050008BDE0
:103C20006FF0050008BD6FF0050008BD002008BD5D
:103C3000C00D0020034B0360034B0B608023136017
:103C4000704700BF6409002064070020034B036035
:103C5000034B0B604FF4807313607047C40D00205A
:103C6000C009002000F1080343604FF0FF3282607A
:103C7000C360036100230360704700BF002303613A
:103C8000704700BF43684B609A688A609A685160C9
:103C900099600861036801330360704730B40D68B0
:103CA000B5F1FF3F01D1026907E000F1080200E031
:103CB0001A4653681C68A542FAD253684B60996053
:103CC0008A605160086103680133036030BC70474B
:103CD00003694268816891608268416851605A68EE
:103CE000904201D182685A60002202611A68013A4A
:103CF0001A601868704700BF82B0002301930D4B13
:103D00001B68B3F1FF3F08D04FF0500383F31188D5
:103D1000BFF36F8FBFF34F8FFEE74FF0500383F376
:103D20001188BFF36F8FBFF34F8F019B002BFCD027
:103D300002B070473800002006480068006880F331
:103D4000088862B661B6BFF34F8FBFF36F8F00DF95
:103D500000BF000008ED00E04FF0807340F8043C25
:103D600021F0010140F8081C034B40F80C3C40F8DE
:103D7000202C4038704700BFF93C000800000000CC
:103D8000074B19680868B0E8F00F80F30988BFF3A3
:103D90006F8F4FF0000080F311884EF00D0E7047CA
:103DA000101F00204FF0500383F31188BFF36F8F73
:103DB000BFF34F8F0A4A136801331360012B0DD1F3
:103DC000084B1B6813F0FF0F08D04FF0500383F32C
:103DD0001188BFF36F8FBFF34F8FFEE7704700BFAF
:103DE0003800002004ED00E0094B1B6843B94FF098
:103DF000500383F31188BFF36F8FBFF34F8FFEE73C
:103E0000013B034A13600BB983F31188704700BF6D
:103E1000380000200000000000000000000000004A
:103E2000EFF30980BFF36F8F0D4B1A6820E9F00F95
:103E300010602DE908404FF0500080F3118801F028
:103E4000CDF84FF0000080F31188BDE808401968F4
:103E50000868B0E8F00F80F30988BFF36F8F7047F0
:103E6000101F002008B54FF0500383F31188BFF3F3
:103E70006F8FBFF34F8F00F07BFF18B14FF0805270
:103E8000024B1A60002383F3118808BD04ED00E0A3
:103E9000084A0023136008490B60084B1B68084957
:103EA000A1FB03139B09013B06490B600723136029
:103EB000704700BF10E000E018E000E02C00002098
:103EC000D34D621014E000E010B582B0274B1A7891
:103ED000D2B20192FF221A701B78DBB28DF8033048
:103EE0009DF8033003F05003214A13700722214B41
:103EF0001A6009E01F4A1368013B13609DF8033004
:103F00005B00DBB28DF803309DF8033013F0800FB7
:103F1000F0D1184B1B68032B08D04FF0500383F3EC
:103F20001188BFF36F8FBFF34F8FFEE71B0203F4BF
:103F3000E063104A1360019BDBB20C4A13700E4B16
:103F40001A6842F470021A601A6842F070421A60ED
:103F5000FFF79EFF0024094B1C60FFF7EDFE01F008
:103F60003DF8FFF7C9FE204602B010BD00E400E0B6
:103F7000200E0020240E002020ED00E0380000205C
:103F8000EFF305830F2B0FD9104A9B5CDBB2104A6D
:103F90001278934208D24FF0500383F31188BFF395
:103FA0006F8FBFF34F8FFEE70A4B1B6803F4E0638C
:103FB000094A1268934208D94FF0500383F31188DD
:103FC000BFF36F8FBFF34F8FFEE77047F0E300E062
:103FD000200E00200CED00E0240E0020124A12F00A
:103FE000070F07D0D11D21F00701C1F5406313442D
:103FF0000A4601E04FF440630C4802600021416032
:104000001344083B23F00703094803605960196013
:10401000991A51601360074B1960074B19604FF0F4
:104020000042064B1A607047380E0020300E002008
:104030002C0E00203C1A0020280E0020381A0020E8
:10404000124B00E013461A688242FBD310B45C683E
:104050001919884203D141682144596018464468BF
:1040600001198A420CD10A4909688A4206D052686D
:10407000224442601A681268026002E0016000E0B7
:104080000260984200D0186010BC7047300E0020CB
:104090002C0E002070B5044600F05CFE394B1B6806
:1040A0000BB9FFF79BFF384B1B681C4253D194B1EF
:1040B000083414F0070F0ED024F00704083404F07D
:1040C000070343B14FF0500383F31188BFF36F8FA1
:1040D000BFF34F8FFEE7002C3FD02C4B1B689C4258
:1040E0003DD82B4B1D6801E02B4615466A6894426B
:1040F00002D92A68002AF7D1224A1268954230D0A4
:104100001E6808362A681A606B681B1B102B10D9B2
:10411000281910F0070F08D04FF0500383F31188CF
:10412000BFF36F8FBFF34F8FFEE743606C60FFF705
:1041300087FF6A6815490B689B1A0B601549096867
:104140008B4201D213490B600F4B1B681A436A6004
:1041500000232B6006E0002604E0002602E0002693
:1041600000E0002600F096FE16F0070F08D04FF092
:10417000500383F31188BFF36F8FBFF34F8FFEE7B8
:10418000304670BD2C0E0020381A0020280E00206A
:10419000300E00203C1A0020A0B338B50346A0F131
:1041A000080550F8042C1849096812EA010408D1DE
:1041B0004FF0500383F31188BFF36F8FBFF34F8F1E
:1041C000FEE750F8080C40B14FF0500383F311881C
:1041D000BFF36F8FBFF34F8FFEE794B188B91C46D2
:1041E00022EA010243F8042C00F0B4FD54F8043C28
:1041F000064A11680B4413602846FFF721FF00F0C0
:1042000049FE38BD704700BF381A0020280E002034
:1042100010B50446FFF7C6FDA26BE36B9A4201D1CD
:10422000012400E00024FFF7DFFD204610BD00BFA1
:1042300010B50446FFF7B6FDA36B0BB9012400E0EF
:104240000024FFF7D1FD204610BD00BF70B5044625
:104250001646856B026C3AB9036843BB406800F0B0
:10426000E5FF0023636029E06EB98068FCF772FA0D
:10427000A268236C1344A3606268934219D3236835
:10428000A36000201AE0C068FCF764FA236C5B426C
:10429000E2681A44E26021688A4202D262681344EA
:1042A000E360022E07D145B1013D002006E0002069
:1042B00004E0002002E0002000E000200135A563BA
:1042C00070BD00BF026C72B110B50346C4681444DF
:1042D000C4604068844201D31868D8600846D96831
:1042E000FCF738FA10BD704738B50546FFF75AFDA0
:1042F00095F8454064B20AE06B6A53B105F12400B9
:1043000000F0ECFE08B100F07BFF013C64B2002C31
:10431000F2DCFF2385F84530FFF766FDFFF742FD2D
:1043200095F8444064B20AE02B6953B105F11000DE
:1043300000F0D4FE08B100F063FF013C64B2002C31
:10434000F2DCFF2385F84430FFF74EFD38BD00BF97
:1043500038B540B94FF0500383F31188BFF36F8F26
:10436000BFF34F8FFEE704460D46FFF71BFD2168A4
:10437000E26B236C03FB021060600020A063A1606D
:10438000013A02FB0313E360FF2384F8443084F80E
:1043900045307DB92369ABB104F1100000F09EFEF9
:1043A00080B14FF08052094B1A60BFF34F8FBFF3BB
:1043B0006F8F07E004F11000FFF754FC04F12400B4
:1043C000FFF750FCFFF710FD012038BD04ED00E0C1
:1043D00038B51D46049C0B4609B9246000E02260F4
:1043E000E063236401212046FFF7B2FF84F84C50BC
:1043F00038BD00BF40B94FF0500383F31188BFF3BD
:104400006F8FBFF34F8FFEE710B584B0044643B9FA
:104410004FF0500383F31188BFF36F8FBFF34F8FBB
:10442000FEE712B119B1012002E0012000E00020F6
:1044300040B94FF0500383F31188BFF36F8FBFF380
:104440004F8FFEE712B919B9012002E0012000E008
:10445000002040B94FF0500383F31188BFF36F8FF2
:10446000BFF34F8FFEE7502003900398502808D0E9
:104470004FF0500383F31188BFF36F8FBFF34F8F5B
:10448000FEE720461C463BB1012384F846300094E9
:104490009DF81830FFF79CFF204604B010BD00BF08
:1044A000F0B585B0019240B94FF0500383F3118805
:1044B000BFF36F8FBFF34F8FFEE7044619B9026C4D
:1044C0001AB9012202E0012200E0002242B94FF0B5
:1044D000500383F31188BFF36F8FBFF34F8FFEE755
:1044E000022B03D1E26B012A02D102E0012200E09B
:1044F000002242B94FF0500383F31188BFF36F8F4E
:10450000BFF34F8FFEE71D460E4600F07FFE18B941
:10451000019B1BB9012302E0012300E0002343B902
:104520004FF0500383F31188BFF36F8FBFF34F8FAA
:10453000FEE70027FFF736FCA26BE36B9A4201D33C
:10454000022D21D12A4631462046FFF77FFE636ABD
:104550006BB104F1240000F0C1FD88B14FF080522E
:10456000324B1A60BFF34F8FBFF36F8F08E038B143
:104570004FF080522D4B1A60BFF34F8FBFF36F8FF8
:10458000FFF732FC01204EE0019B1BB9FFF72CFC2A
:10459000002048E01FB902A800F0E6FD0127FFF760
:1045A00023FC00F0D7FBFFF7FDFB94F844305BB22F
:1045B000B3F1FF3F02D1002384F8443094F8453032
:1045C0005BB2B3F1FF3F02D1002384F84530FFF71F
:1045D0000BFC01A902A800F0D3FDF0B92046FFF7BB
:1045E00017FEA0B1019904F1100000F043FD204630
:1045F000FFF77AFE00F04EFC00289BD14FF080526E
:104600000A4B1A60BFF34F8FBFF36F8F92E72046BC
:10461000FFF76AFE00F03EFC8CE72046FFF764FEE1
:1046200000F038FC002005B0F0BD00BF04ED00E054
:104630002DE9F84340B94FF0500383F31188BFF3DD
:104640006F8FBFF34F8FFEE7044619B9006C18B99E
:10465000012002E0012000E0002040B94FF05003AB
:1046600083F31188BFF36F8FBFF34F8FFEE7022BE9
:1046700003D1E06B012802D102E0012000E000201C
:1046800040B94FF0500383F31188BFF36F8FBFF32E
:104690004F8FFEE71F4690468946FFF771FCEFF308
:1046A00011864FF0500383F31188BFF36F8FBFF370
:1046B0004F8FA26BE36B9A4201D3022F1ED194F865
:1046C00045506DB23A4649462046FFF7BFFDB5F169
:1046D000FF3F0DD1636A9BB104F1240000F0FEFCA2
:1046E00080B1B8F1000F0FD00120C8F800000CE035
:1046F0006B1C5BB284F84530012006E0002004E02A
:10470000012002E0012000E0012086F31188BDE8CD
:10471000F88300BFF0B585B0019240B94FF0500367
:1047200083F31188BFF36F8FBFF34F8FFEE704460B
:1047300019B9036C1BB9012302E0012300E0002337
:1047400043B94FF0500383F31188BFF36F8FBFF36A
:104750004F8FFEE70E4600F059FD18B9019B1BB9BB
:10476000012302E0012300E0002343B94FF050038E
:1047700083F31188BFF36F8FBFF34F8FFEE70027DE
:10478000FFF710FBA56BC5B131462046FFF79AFD38
:10479000013DA563236963B104F1100000F09EFCA4
:1047A00038B14FF08052304B1A60BFF34F8FBFF3D8
:1047B0006F8FFFF719FB012053E0019B1BB9FFF737
:1047C00013FB00204DE01FB902A800F0CDFC01272B
:1047D000FFF70AFB00F0BEFAFFF7E4FA94F8443062
:1047E0005BB2B3F1FF3F02D1002384F8443094F868
:1047F00045305BB2B3F1FF3F02D1002384F845306E
:10480000FFF7F2FA01A902A800F0BAFCF0B92046BD
:10481000FFF70EFDA0B1019904F1240000F02AFC7D
:104820002046FFF761FD00F035FB0028A8D14FF0CE
:1048300080520D4B1A60BFF34F8FBFF36F8F9FE70E
:104840002046FFF751FD00F025FB99E72046FFF7D2
:104850004BFD00F01FFB2046FFF7EAFC00288FD03D
:10486000002005B0F0BD00BF04ED00E000230BE028
:10487000074A52F8332032B9054A42F8331002EBA6
:10488000C303586070470133072BF1D9704700BF4D
:10489000401A002070B504460D461646FFF782FA0E
:1048A00094F844305BB2B3F1FF3F02D1002384F8A7
:1048B000443094F845305BB2B3F1FF3F02D100239E
:1048C00084F84530FFF790FAA36B2BB9324629469E
:1048D00004F1240000F0E6FB2046FFF705FD70BD63
:1048E0000A4B1B681B680BB9012300E0002323B1AE
:1048F0004FF0FF32064B1A607047044B1B68DB68B1
:10490000DB685A68024B1A60704700BF801A0020AB
:10491000301F00202DE9F04781460D4617469A4684
:10492000089EDDF824800A9C9200A521206B00F0EF
:104930001DFF236B07F18042013A03EB820727F04A
:104940000707002306E0E95CE21882F83410EA5C0D
:1049500012B101330F2BF6D9002384F84330372EE0
:1049600000D93726E662E66400252565201DFFF79D
:1049700085F904F11800FFF781F92461C6F13806C2
:10498000A6616462656584F85850524649463846C7
:10499000FFF7E2F92060B8F1000F01D0C8F800403D
:1049A000BDE8F08738B5002407E004EB84029300EB
:1049B0000E481844FFF756F90134372CF5D90C4D41
:1049C0002846FFF74FF90B4C2046FFF74BF90A48F2
:1049D000FFF748F90948FFF745F90948FFF742F999
:1049E000084B1D60084B1C6038BD00BFA41A002096
:1049F000381F00204C1F0020141F0020881A0020A0
:104A0000601F0020801A00209C1A002010B5044668
:104A1000FFF7C8F9204A1368013313601F4B1B6866
:104A20003BB91E4B1C601368012B0DD1FFF7BAFF79
:104A30000AE01B4B1B683BB9184B1B68DA6AE36A38
:104A40009A4201D8154B1C60164A13680133136053
:104A50006364E36A144A1268934201D9124A1360EC
:104A600003EB83039A00211D10481044FFF70AF955
:104A7000FFF7BAF90A4B1B686BB1084B1B68DA6A7F
:104A8000E36A9A4207D24FF08052094B1A60BFF393
:104A90004F8FBFF36F8F10BD0C1F0020101F002021
:104AA000841A0020341F0020741F0020A41A002044
:104AB00004ED00E010B5044690F8593033B9006BAE
:104AC000FFF76AFB2046FFF767FB10BD012B02D101
:104AD000FFF762FB10BD022B08D04FF0500383F3A9
:104AE0001188BFF36F8FBFF34F8FFEE710BD00BF7C
:104AF00010B514E0FFF756F90B4BDB68DC68201D9E
:104B0000FFF7E6F8094A1368013B1360084A136887
:104B1000013B1360FFF768F92046FFF7CBFF044B1A
:104B20001B68002BE6D110BD881A00200C1F002046
:104B3000081F002008B5FFF7DBFF064B1B68012BA1
:104B4000F9D94FF08052044B1A60BFF34F8FBFF377
:104B50006F8FF0E7A41A002004ED00E070B5044662
:104B60000E46174B1D68174B18680430FFF7B0F856
:104B7000B4F1FF3F07D136B1124B19680431124826
:104B8000FFF780F870BD2C440E4B1B685C60A5429B
:104B900007D90E4B18680B4B19680431FFF77EF8E4
:104BA00070BD0B4B1868074B19680431FFF776F896
:104BB000084B1B689C4201D2064B1C6070BD00BFB5
:104BC0002C1F0020101F0020601F00209C1A0020B6
:104BD000801A0020301F002070B586B00B9D0C9C01
:104BE00045B94FF0500383F31188BFF36F8FBFF3C4
:104BF0004F8FFEE744B94FF0500383F31188BFF3A2
:104C00006F8FBFF34F8FFEE75C260496049E5C2EE9
:104C100008D04FF0500383F31188BFF36F8FBFF3B9
:104C20004F8FFEE78CB185B12563022584F859507A
:104C300000250395029405AD01950A9D0095FFF7A7
:104C400069FE2046FFF7E2FE01E000230593059888
:104C500006B070BD2DE9F04385B006460F461546F7
:104C600098469000FFF716FA60B181465C20FFF786
:104C700011FA044610B1C0F8309004E04846FFF73E
:104C80008BFA00E000249CB1002384F85930039390
:104C900002940D9B01930C9B009343462A46394690
:104CA0003046FFF737FE2046FFF7B0FE012001E057
:104CB0004FF0FF3005B0BDE8F08300BF10B588B0FD
:104CC00000240594069407AA06A905A8FEF7B2FFDA
:104CD000059B0293069B019300942346079A18496B
:104CE0001848FFF779FF08B1012000E000200128F3
:104CF00001D100F04FFB012814D14FF0500383F392
:104D00001188BFF36F8FBFF34F8F4FF0FF320E4B01
:104D10001A6001220D4B1A6000220D4B1A60FFF73A
:104D2000D3F80BE0B0F1FF3F08D14FF0500383F30D
:104D30001188BFF36F8FBFF34F8FFEE708B010BD30
:104D400054620008354B0008301F0020841A0020F0
:104D50002C1F0020024A136801331360704700BF04
:104D6000041F0020014B1868704700BF2C1F002053
:104D7000F8B53D4B1B68002B68D13C4B1D680135D5
:104D80001D60C5B93A4B1B681B6843B14FF0500317
:104D900083F31188BFF36F8FBFF34F8FFEE7344A61
:104DA0001168344B186810601960334A1368013376
:104DB0001360FFF795FD314B1B689D4203D2002421
:104DC00039E0012400E00024294B1B681B680BB963
:104DD000012300E0002323B14FF0FF32274B1A607C
:104DE00029E0234B1B68DB68DE6873689D4202D2B2
:104DF000224A13601FE0371D3846FEF769FFB36A89
:104E00001BB106F11800FEF763FFF36A1C4A126833
:104E1000934201D91A4A136003EB83039A0039467F
:104E200018481044FEF72EFFF26A174B1B68DB6A26
:104E30009A42C6D2C8E7144B1B68DB6A03EB8303B4
:104E40009A00104B9B58012B06D806E00F4A1368B6
:104E500001331360002400E001240D4B1B6803B1F3
:104E600001242046F8BD00BF041F00202C1F002095
:104E7000801A00209C1A0020281F0020301F0020CC
:104E8000741F0020A41A0020101F0020A01A002068
:104E9000781F002038B5344B1B6843B94FF05003DE
:104EA00083F31188BFF36F8FBFF34F8FFEE7FEF7D9
:104EB00079FF2D4B1A68013A1A601B68002B4BD101
:104EC0002A4B1B682BBB002449E0294BDB68DC68BC
:104ED00004F11800FEF7FCFE251D2846FEF7F8FE3B
:104EE000E36A244A1268934201D9224A136003EB11
:104EF00083039A00294620481044FEF7C3FEE26A65
:104F00001E4B1B68DB6A9A4204D301221C4B1A60B9
:104F100000E00024164B1B68002BD6D10CB1FFF724
:104F2000DFFC184B1C6854B1FFF722FF10B10122BF
:104F3000134B1A60013CF7D10022124B1A60104B40
:104F40001B685BB14FF080520F4B1A60BFF34F8F5D
:104F5000BFF36F8F012402E0002400E00024FEF77D
:104F600043FF204638BD00BF041F00200C1F002057
:104F7000141F0020741F0020A41A0020101F0020FE
:104F8000781F0020A01A002004ED00E010B5A8B1A1
:104F90000446104B1B6843B14FF0500383F3118854
:104FA000BFF36F8FBFF34F8FFEE7FFF7D3FE0021F4
:104FB0002046FFF7D3FDFFF76DFF00E0002038B972
:104FC0004FF08052044B1A60BFF34F8FBFF36F8FC7
:104FD00010BD00BF041F002004ED00E0204B1B6843
:104FE0001BB101221F4B1A60704700221D4B1A6033
:104FF0001D4B1B680AE043B94FF0500383F311883F
:10500000BFF36F8FBFF34F8FFEE7013B03EB8301CD
:105010008A0016498A58002AEDD030B40D4699000E
:10502000CA189000284442685468446019448A00B1
:1050300008322A44944205D1606803EB83018A0058
:105040002A44506003EB83018A0008490A445268ED
:10505000D168074A1160044A136030BC704700BF32
:10506000041F0020781F0020741F0020A41A0020B5
:10507000101F002040B94FF0500383F31188BFF395
:105080006F8FBFF34F8FFEE710B50C46044B1968C6
:105090001831FEF703FE01212046FFF75FFD10BD2A
:1050A000101F002038B540B94FF0500383F311882A
:1050B000BFF36F8FBFF34F8FFEE70C461546064ACE
:1050C00011681831FEF7DEFD0DB14FF0FF342946AF
:1050D0002046FFF743FD38BD101F002038B5C368D8
:1050E000DC6844B94FF0500383F31188BFF36F8F2E
:1050F000BFF34F8FFEE704F118052846FEF7E8FDE1
:10510000134B1B689BB9251D2846FEF7E1FDE36A9A
:10511000104A1268934201D90E4A136003EB8303CD
:105120009A0029460C481044FEF7ACFD03E02946DE
:105130000A48FEF7A7FDE26A094B1B68DB6A9A4240
:1051400003D90120074B186038BD002038BD00BFCF
:10515000041F0020741F0020A41A0020141F002028
:10516000101F0020781F0020034B1B680360034BB7
:105170001B684360704700BF281F00202C1F0020C1
:10518000F8B540B94FF0500383F31188BFF36F8F28
:10519000BFF34F8FFEE7054641B94FF0500383F34D
:1051A0001188BFF36F8FBFF34F8FFEE70C46FEF7FA
:1051B000F9FD114B18686968421A2368B3F1FF3F83
:1051C00013D02F680D4E3668B74201D088420ED2F8
:1051D0009A4206D29B1A23602846FFF7C5FF002497
:1051E00006E000232360012402E0002400E0012403
:1051F000FEF7FAFD2046F8BD2C1F0020281F0020D6
:105200000122014B1A607047781F0020054B1B6874
:1052100023B1054B1B681BB9022070470120704762
:1052200000207047841A0020041F002000283AD074
:1052300038B503461F4A1268904208D04FF0500319
:1052400083F31188BFF36F8FBFF34F8FFEE7026DBB
:1052500042B94FF0500383F31188BFF36F8FBFF350
:105260004F8FFEE7013A0265C06AD96C88421CD0B4
:10527000EAB91C461D1D2846FEF72AFDE36CE362D1
:10528000C3F13802A2610C4A1268934201D90A4A5A
:10529000136003EB83039A00294608481044FEF785
:1052A000F1FC012038BD00207047002038BD0020EF
:1052B00038BD00BF101F0020741F0020A41A00205A
:1052C000064B1A681368B3FA83F35B09036013B9DA
:1052D000D368186870470020704700BF7C1F00200B
:1052E00008B54160006191420AD8D21A83699A4296
:1052F00011D2011D0A4B1868FEF7D0FC002008BD32
:105300009A4201D2994208D2011D064B1868FEF755
:10531000C5FC002008BD012008BD012008BD00BF5C
:10532000A02000207C1F002030B583B0FEF73AFD9E
:10533000104B1B68CBB9104D2846FEF793FC0F4C61
:105340002046FEF78FFC0E4B1D600E4B1C600023A9
:1053500000930D4B0D4A10210A20FFF74BF8054B27
:10536000186010B10A49FFF781FAFEF73DFD03B05E
:1053700030BD00BF9C200020801F0020941F002013
:105380007C1F0020A02000204C200020AC1F00200B
:105390005C62000810B588B0FFF7C6FF154B1B68AC
:1053A000D3B100240594069407AA06A905A8FEF720
:1053B0004DFC059B0293069B019302230093234619
:1053C000079A0D490D48FFF707FC0D4B186008B907
:1053D000204602E0012000E0002040B94FF05003D9
:1053E00083F31188BFF36F8FBFF34F8FFEE708B0D1
:1053F00010BD00BF9C20002064620008B956000860
:10540000A420002040B94FF0500383F31188BFF36C
:105410006F8FBFF34F8FFEE730B585B0154604465A
:10542000124A1068F0B11A460091019502940529BC
:1054300013DCFFF7EBFE022807D10023089A694628
:105440000A480068FFF72CF80DE000231A46694669
:1054500006480068FFF724F805E000236946FFF7D7
:10546000E7F800E0002005B030BD00BF9C20002020
:1054700070B582B029E0DB681E68DC68251D28460F
:10548000FEF726FC636A20469847E369012B1CD18E
:10549000A36933449E4207D2636024612946114BBD
:1054A0001868FEF7FBFB10E0002100910B46324626
:1054B0002046FFF7A7FF40B94FF0500383F3118850
:1054C000BFF36F8FBFF34F8FFEE7064B1B681A6861
:1054D000002AD0D1044A106802490860136002B063
:1054E00070BD00BF7C1F0020A020002038B50546FD
:1054F000FFF738FC0446074B1B68984204D2FFF7BD
:10550000B7FF01232B6001E000232B60014B1C60DF
:10551000204638BDA81F002070B582B005460E4653
:10552000134B1B68DB68DC68201DFEF7D1FBE369C9
:10553000012B18D1A1692B46324629442046FFF79A
:10554000CFFE80B1002100910B462A462046FFF78E
:1055500059FF40B94FF0500383F31188BFF36F8FA9
:10556000BFF34F8FFEE7636A2046984702B070BDD5
:105570007C1F002070B582B006460C46FFF7EAFBA0
:1055800001A8FFF7B3FF019B1BBB054644B9B0421E
:1055900006D3FFF77FFC29463046FFF7BDFF1AE030
:1055A0002CB10E4B1B681C68B4FA84F464092246C3
:1055B000711B0B4B1868FFF76DF9FFF76BFC50B9C7
:1055C0004FF08052074B1A60BFF34F8FBFF36F8FBE
:1055D00001E0FFF75FFC02B070BD00BFA02000201B
:1055E0009C20002004ED00E030B589B057E0049B1A
:1055F000002B03DA07990698059B9847049B002B1C
:105600004DDB069C636913B1201DFEF761FB03A807
:10561000FFF76CFF049B092B41D8DFE803F0050579
:105620000540273A050540270599A5690B4602461E
:1056300029442046FFF754FE88B3636A2046984702
:10564000E369012B2BD1A269002100910B4605983B
:1056500002442046FFF7D6FE08BB4FF0500383F309
:105660001188BFF36F8FBFF34F8FFEE70599A161DC
:1056700041B94FF0500383F31188BFF36F8FBFF32D
:105680004F8FFEE70346024601442046FFF728FEFF
:1056900005E094F82C3013B92046FEF77DFD00227A
:1056A00004A9044B1868FFF735F800289FD109B00A
:1056B00030BD00BF9C20002000B583B001A8FFF7DB
:1056C000FFFD0199FFF756FFFFF78EFFF6E700BFDA
:1056D000002103E00B4B5B58435004310A480B4B4D
:1056E00042189A42F6D30A4A02E0002342F8043BE9
:1056F000084B9A42F9D3FBF767FE00F00FF8FBF76F
:1057000079FD70477C6200080000002068040020DA
:1057100068040020A8200020FEE7000070B50F4EAE
:105720000F4D761BB61018BF002405D0013455F874
:10573000043B9847A642F9D10A4E0B4D00F0DAF827
:10574000761BB61018BF002406D0013455F8043B70
:105750009847A642F9D170BD70BD00BF70620008C5
:1057600070620008786200087062000870B48407F4
:1057700046D0541E002A41D0CDB2034602E0621E3C
:10578000E4B3144603F8015B9A07F8D1032C2ED931
:10579000CDB245EA05250F2C45EA054519D926461F
:1057A00003F11002103E0F2E42F8105C42F80C5C20
:1057B00042F8085C42F8045C02F11002F2D8A4F14D
:1057C000100222F00F0204F00F041032032C1344D5
:1057D0000DD91E462246043A032A46F8045BFAD83D
:1057E000221F22F003020432134404F003042CB1FC
:1057F000C9B21C4403F8011BA342FBD170BC704723
:1058000014460346C2E700BF024B13B1024800F042
:1058100005B8704700000000295800080023014621
:105820001A46184600F014B838B5074D074C2C1B23
:10583000A41005D0013C55F8043D9847002CF9D13F
:10584000BDE8384000F05CB87C620008786200086F
:105850002DE9F047254C064625688846D5F848418D
:1058600092469946C4B360681F2817DC411C76B184
:1058700004EB8003C3F888A0D4F888510122824049
:105880001543022EC4F88851C3F808911ED0831C1A
:105890006160002044F82380BDE8F087144B03B317
:1058A0004FF4C870AFF300800446D0B1D5F848314A
:1058B000002784E888003846C5F848410121C4F82B
:1058C0008871C4F88C71002EE1D0D1E7D4F88C3106
:1058D0001A43C4F88C21DAE705F5A674C5F84841E7
:1058E000C1E74FF0FF30BDE8F08700BF6C620008F1
:1058F00000000000F8B500BFF8BC08BC9E46704729
:0C590000F8B500BFF8BC08BC9E4670471C
:10590C0002030405060708090A0B0C0D0E0F1010F4
:10591C000102000000000000000000000000000078
:10592C0000000000000000F8000000000000003340
:10593C003000000000100C06100C060000000000E7
:10594C000000000040C07840C0784000043F0404D0
:10595C003F040400007088FC08300000001820FF91
:10596C00211E0000F008F000E018000000211C03CC
:10597C001E211E0000F00888700000001E21232448
:10598C001927211010160E00000000000000000066
:10599C0000000000000000E01804020000000007F6
:1059AC001820400000020418E000000000402018FD
:1059BC0007000000404080F0804040000202010FD0
:1059CC0001020200000000F0000000000101011FB4
:1059DC0001010100000000000000000080B0700018
:1059EC0000000000000000000000000000010101A8
:1059FC000101010100000000000000000030300037
:105A0C000000000000000000806018040060180610
:105A1C000100000000E010080810E000000F10204A
:105A2C0020100F00001010F8000000000020203F94
:105A3C00202000000070080808887000003028241E
:105A4C0022213000003008888848300000182020BF
:105A5C0020110E000000C02010F8000000070424E4
:105A6C00243F240000F80888880808000019212029
:105A7C0020110E0000E0108888180000000F112083
:105A8C0020110E0000380808C83808000000003F3C
:105A9C00000000000070880808887000001C22219B
:105AAC0021221C0000E010080810E0000000312248
:105ABC0022110F00000000C0C000000000000030E8
:105ACC00300000000000008000000000000080603A
